:020000040800F2
:1000000000500020391B0008551900085D19000830
:10001000891900088F1900089519000800000000D0
:100020000000000000000000000000009B19000814
:10003000A719000800000000B3190008BF19000844
:10004000811B0008811B0008811B0008811B000820
:10005000811B0008811B0008811B0008811B000810
:10006000811B0008811B0008811B0008811B000800
:10007000811B0008811B0008811B0008811B0008F0
:10008000811B0008811B0008811B0008811B0008E0
:10009000811B0008811B0008811B0008811B0008D0
:1000A000811B0008811B0008811B0008811B0008C0
:1000B000CD190008811B0008811B0008E119000808
:1000C000811B0008811B0008811B0008811B0008A0
:1000D000811B0008811B0008811B0008811B000890
:1000E000811B0008811B0008811B00080000000024
:1000F0000000000000000000000000000000000000
:0C01000000000000000000005FF808F1A3
:10010C0010B5054C237833B9044B13B10448AFF345
:10011C0000800123237010BD8C0000200000000023
:10012C00B85D000808B5034B1BB103490348AFF396
:10013C00008008BD0000000090000020B85D0008A1
:10014C0010F8012B11F8013B012A28BF9A42F7D075
:10015C00D01A704780B586B002AF0346FB71FB79AD
:10016C0023F00F03FB73FB791B01BB73FB7B43F089
:10017C000C03DBB23B72FB7B43F00803DBB27B72FC
:10018C00BB7B43F00C03DBB2BB72BB7B43F00803BD
:10019C00DBB2FB7207F108026423009304234221B3
:1001AC00034802F027FA00BF1037BD4680BD00BFE0
:1001BC00AC01002080B586B002AF0346FB71FB7921
:1001CC0023F00F03FB73FB791B01BB73FB7B43F029
:1001DC000D03DBB23B72FB7B43F00903DBB27B729A
:1001EC00BB7B43F00D03DBB2BB72BB7B43F009035B
:1001FC00DBB2FB7207F10802642300930423422153
:10020C00034802F0F7F900BF1037BD4680BD00BFB0
:10021C00AC01002080B500AF3320FFF79BFF3220EC
:10022C00FFF798FF322001F009FD2820FFF792FF1D
:10023C00322001F003FD0120FFF78CFF322001F08A
:10024C00FDFC0620FFF786FF322001F0F7FC0C20A6
:10025C00FFF780FF322001F0F1FC0220FFF77AFF5C
:10026C00322001F0EBFC8020FFF774FF00BF80BD53
:10027C0080B582B000AF786006E07B685A1C7A606B
:10028C001B781846FFF796FF7B681B78002BF4D180
:10029C0000BF00BF0837BD4680BD80B500AF012050
:1002AC00FFF758FF00BF80BD80B584B000AF786009
:1002BC0039607B68002B04D13B68DBB2803BFB735D
:1002CC0006E07B68012B03D13B68DBB2403BFB7340
:1002DC00FB7B1846FFF73EFF00BF1037BD4680BDC5
:1002EC0080B500AF2021024802F013F800BF80BD9A
:1002FC000008014080B500AF0C4B5B78002B05D09B
:10030C000A4B5B78013BDAB2084B5A70084B5B78AE
:10031C00002B05D0064B5B78013BDAB2044B5A70CC
:10032C00002000F027FE00BF80BD00BF04000020AD
:10033C000C00002080B500AF094B1B78622B06D84F
:10034C00074B1B780133DAB2054B1A7002E0044BF1
:10035C0000221A70012000F00DFE00BF80BD00BF0E
:10036C00EB00002080B500AF094B1B78002B06D0AA
:10037C00074B1B78013BDAB2054B1A7002E0044BB9
:10038C0063221A70012000F0F5FD00BF80BD00BF94
:10039C00EB00002080B588B000AF20233B81744B6C
:1003AC001B78002B02D152233B720CE0704B1B7854
:1003BC00012B02D159233B7205E06D4B1B78022BAC
:1003CC0001D147233B726B4B1B78632B06D907F18A
:1003DC000C036949184605F0AFF818E0654B1B781B
:1003EC00092B0AD9634B1B781A4607F1080307F14E
:1003FC000C00624905F0A0F809E05E4B1B781A4628
:10040C0007F1080307F10C005D4905F095F8002190
:10041C000020FFF749FF07F10C031846FFF728FFF0
:10042C0058495948FFF78CFE0346002B41D1574BD6
:10043C007B60574B1B78012B07D1554B00221A7050
:10044C003B1D5449184605F077F8534B1B78022B8B
:10045C0007D13A1D07F10C035049184605F06CF80A
:10046C001DE04D4B1B78032B07D13A1D07F10C03F4
:10047C004B49184605F060F811E0474B1B78042BEC
:10048C0007D13A1D07F10C034649184605F054F8FC
:10049C0005E007F10C034449184605F04DF800211E
:1004AC000120FFF701FF07F10C031846FFF7E0FEF0
:1004BC0040E03E4B1B78002B02D152233B720CE0E8
:1004CC003A4B1B78012B02D159233B7205E0374B79
:1004DC001B78022B01D147233B722F4B1B78632BCC
:1004EC0006D907F10C033249184605F025F818E037
:1004FC00294B1B78092B0AD9274B1B781A4607F175
:10050C00080307F10C002B4905F016F809E0224B03
:10051C001B781A4607F1080307F10C00264905F071
:10052C000BF800210120FFF7BFFE07F10C03184662
:10053C00FFF79EFE144B9B79002B06D007F10C03A2
:10054C001E49184604F0F8FF05E007F10C030E49AC
:10055C00184604F0F1FF0A210120FFF7A5FE07F170
:10056C000C031846FFF784FE00BF2037BD4680BD44
:10057C00D0000020EB000020D05D0008DC5D0008FE
:10058C00F05D0008045E0008EC0000202020200034
:10059C00DF0000200C5E0008E0000020105E000868
:1005AC001C5E0008285E0008345E00081C00002059
:1005BC00405E00084C5E0008585E0008685E00084B
:1005CC0080B582B000AF2F4B1B687B607B681B78BB
:1005DC00022B39D0022B50DC002B02D0012B19D06E
:1005EC004BE01021284801F065FE0346012B08D191
:1005FC000021002000F0DCFC0021012000F0D8FCE0
:10060C003BE00121002000F0D3FC0121012000F08F
:10061C00CFFC32E04FF480611B4801F04BFE0346E7
:10062C00012B08D10021002000F0C2FC0021012088
:10063C0000F0BEFC21E00221002000F0B9FC0221F8
:10064C00012000F0B5FC18E010210F4801F032FE3B
:10065C000346012B08D10021002000F0A9FC002149
:10066C00012000F0A5FC07E00321002000F0A0FC15
:10067C000321012000F09CFC00BF00BF0837BD46E1
:10068C0080BD00BFFC000020000C014080B500AF15
:10069C00A0220021064804F047FF064B00221A70E6
:1006AC00054804F075FB054803F0D4FE00BF80BD7F
:1006BC0008010020A80100200C02002000020020EC
:1006CC0080B483B000AF0023FB7141E0FB79254A75
:1006DC001B0113441B68002B37D0FB79214A1B01EB
:1006EC00134404331B68002B23D1FB791D4A1B01D7
:1006FC0013440C331A78FB790132D1B2194A1B011D
:10070C0013440C330A461A70FB79164A1B01134426
:10071C0008331B68002B18D0FA79FB7911491201A8
:10072C000A44083212680F491B010B4404331A6047
:10073C000BE0FB790B491A010A4404321268013AA6
:10074C0008491B010B4404331A60FB790133FB711C
:10075C00FB79092BBAD900BF00BF0C37BD4680BC52
:10076C00704700BF0801002080B487B000AFF8606C
:10077C00B9607A600023FB7502E0FB7D0133FB75E9
:10078C00FB7D174A1B0113441B68002B02D0FB7D19
:10079C00092BF2D9FB7D0A2B02D1124B02221A70C3
:1007AC00FB7D0F4A1B011344FA681A60FB7D0C4A4F
:1007BC001B0113440433BA681A60FB7D084A1B0101
:1007CC00134408337A681A60FB7D054A1B011344F5
:1007DC000C3300221A7000BF1C37BD4680BC70471A
:1007EC0008010020A801002080B582B000AF0023D2
:1007FC00FB7130E0FB791C4A1B0113440C331B7852
:10080C00002B25D0FB79184A1B0113441B68984711
:10081C00FB79154A1B0113440C331A78FB79013A06
:10082C00D1B2114A1B0113440C330A461A70FB79DE
:10083C000D4A1B01134408331B68002B08D1FB79AC
:10084C001B01094A134410220021184604F06CFEC7
:10085C00FB790133FB71FB79092BCBD900F02EF816
:10086C0000BF0837BD4680BD0801002080B584B0AC
:10087C0000AF78600023FB7315E0FB7B0E4A1B0175
:10088C0013441B687A689A420AD1FB7B1B010A4A03
:10089C00134410220021184604F046FE012306E002
:1008AC00FB7B0133FB73FB7B092BE6D9002318463A
:1008BC001037BD4680BD00BF0801002080B400AFDA
:1008CC0030BF00BFBD4680BC7047000080B582B011
:1008DC0000AF78607B681B68B3F1804F06D100F0E5
:1008EC0031FCFFF7EDFE034803F0F8FD00BF0837BD
:1008FC00BD4680BD0002002080B500AF6D4B1B785B
:10090C00032B00F2D18001A252F823F02909000830
:10091C00A9090008050A00085D0A0008664B5B7807
:10092C00012B08D1654B01221A70624B01221A70FF
:10093C0000F03EFDBCE0604B9B78012B08D15F4B77
:10094C0001221A705B4B03221A7000F031FDAFE0EC
:10095C005B4B9B78012B08D1584B01221A70554BDD
:10096C0002221A7000F024FDA2E0544B1B78002BDD
:10097C000BD05449544804F0DFFD642264215348E1
:10098C00FFF7F2FE4D4B00221A705149514801F00D
:10099C0067F85149514801F063F889E0464B5B78A0
:1009AC00012B08D1454B01221A70424B00221A70C0
:1009BC0000F0FEFC7CE0404B9B78012B05D13D4BBD
:1009CC0003221A7000F0F4FC72E03C4B1B78002BF5
:1009DC0009D043493C4804F0AFFD3C48FFF746FFC3
:1009EC00364B00221A703A493A4801F039F83A4924
:1009FC003A4801F035F85BE03A4B9B78022B1BD15F
:100A0C002E4B1B78002B0ED037492F4804F094FD49
:100A1C002E48FFF72BFF322232212C48FFF7A4FE81
:100A2C00264B00221A702A492A4801F019F82A4943
:100A3C002A4801F015F83BE02448FFF717FF1F4B3D
:100A4C0001221A701B4B00221A7000F0B1FC2FE02F
:100A5C001E48FFF70BFF1E4B5A781F4B5B789A42D0
:100A6C000BD91B4B5A781C4B5B78D31ADAB2184B48
:100A7C005A70194B00225A700AE0174B5A78144BD3
:100A8C005B78D31ADAB2144B5A70114B00225A709D
:100A9C00002000F06FFA094B01221A70054B01225D
:100AAC001A7000F085FC03E0024B00221A7000BFA4
:100ABC0000BF80BDA8000020F40000200000002032
:100ACC00E8000020705E0008EC0000200103000824
:100ADC0004000020D00000200C0000201C0000208E
:100AEC00785E0008E4000020805E000880B582B0CB
:100AFC0000AF78603960724B1B78042B00F2D28007
:100B0C0001A252F823F000BF290B0008F50B0008D6
:100B1C001F0C0008530C00087D0C0008694B5B7817
:100B2C00012B05D1664B01221A7000F041FCBDE08F
:100B3C00654B5B78012B08D1644B01221A70604B1A
:100B4C0002221A7000F034FCB0E0614B5B78012B90
:100B5C0005D15B4B03221A7000F02AFCA6E05D4B1A
:100B6C005B78012B08D1594B01221A70544B04228B
:100B7C001A7000F01DFC99E0524B9B78012B2BD185
:100B8C00554B1B78002B00F091807B681A78524BE8
:100B9C001B789A420CD83B681A784F4B19787B68B3
:100BAC001B78CB1ADBB21344DAB23B681A700BE039
:100BBC003B681A78484B19787B681B78CB1ADBB2E8
:100BCC001344DAB23B681A70434B1A787B681A707C
:100BDC00424B01221A7069E03C4B1B78002B65D00C
:100BEC003A4B00221A7061E03B4B1B78622B06D803
:100BFC00394B1B780133DAB2374B1A7002E0364BA3
:100C0C0000221A70012000F0B5F92D4B00221A7049
:100C1C0051E0334B5B78022B0CD12C4B1B78002B07
:100C2C0046D0192219212F48FFF79EFD274B002291
:100C3C001A703DE02B48FFF719FE00F0B9FB204B72
:100C4C0000221A7034E0244B1B78002B06D0224B68
:100C5C001B78013BDAB2204B1A7002E01E4B632268
:100C6C001A70012000F086F9154B00221A7022E050
:100C7C001B4B5B78042B0CD1144B1B78002B19D01D
:100C8C00192219211848FFF76FFD104B00221A701A
:100C9C0010E01548FFF7EAFD00F08AFB084B002234
:100CAC001A7007E0064B00221A7004E000BF02E045
:100CBC0000BF00E000BF00BF0837BD4680BD00BFCD
:100CCC00A9000020F4000020E80000200100002012
:100CDC00DC000020F8000020EB000020DF000020EA
:100CEC00E4000020410300087103000880B500AF48
:100CFC000021002000F05CF90021012000F058F9DF
:100D0C0000BF80BD80B400AFBFF34F8F00BF064B58
:100D1C00DB6803F4E0620449044B1343CB60BFF37C
:100D2C004F8F00BF00BFFDE700ED00E00400FA05A7
:100D3C0080B582B000AF0346FB71764B1B78012B5C
:100D4C0006D17549754804F0F7FB754B04221A70EF
:100D5C00FB79032B00F2D28001A252F823F000BFE2
:100D6C007D0D0008CF0D00083D0E0008A30E0008F5
:100D7C006C4B1B78012B0BD16B4B01221A706B48FF
:100D8C00FFF774FD664B01221A7000F011FBBCE0FA
:100D9C00654B1B78002B11D0654B00221A70654BEC
:100DAC0001221A70644B00225A70644B00225A7054
:100DBC00634B01221A705C4B00221A70FFF79CFDEA
:100DCC00A3E0584B1B78012B0BD1574B01221A7007
:100DDC005C48FFF74BFD524B02221A7000F0E8FA08
:100DEC0093E0514B1B78002B1DD057494B4804F016
:100DFC00A3FBFFF77BFF554B00221A70544B534A51
:100E0C001A60322232214F48FFF7AEFC4A4B9A78D7
:100E1C00504B1A70504B02221A70012000F0AAF8A5
:100E2C00414B00221A704D494D48FFF75FFE6CE0B4
:100E3C003C4B1B78012B0BD13B4B01221A704148C8
:100E4C00FFF714FD364B03221A7000F0B1FA5CE088
:100E5C00354B1B78002B19D0FFF748FF3B4B012279
:100E6C001A703B4B394A1A60322232213548FFF74F
:100E7C007BFC314BDA78374B1A70374B03221A70E4
:100E8C00012000F077F8284B00221A7035493648BB
:100E9C00FFF72CFE39E0234B1B78012B0BD1224B97
:100EAC0001221A702748FFF7E1FC1D4B00221A7033
:100EBC0000F07EFA29E01C4B1B78002B19D0FFF7B1
:100ECC0015FF224B02221A70214B204A1A60322243
:100EDC0032211C48FFF748FC174B1A791D4B1A702E
:100EEC001D4B04221A70012000F044F80E4B002216
:100EFC001A701C491D48FFF7F9FD06E01C4B1B78C6
:100F0C00022B01D0FFF7FEFE00BF00BF0837BD4625
:100F1C0080BD00BFE8000020885E0008EC000020C7
:100F2C00AB000020F40000200200002001030008A8
:100F3C00D00000201C000020040000200C00002029
:100F4C0000000020CD050008905E0008AA000020DB
:100F5C00FC000020EB000020E0000020100000202E
:100F6C00060000200E0000200700002008000020D2
:100F7C00E400002080B483B000AF0346FB71FB7922
:100F8C00002B07D1064B5A78064B1A70064B5A7831
:100F9C00064B1A7000BF0C37BD4680BC704700BFB3
:100FAC0004000020EB0000200C000020E0000020DA
:100FBC0080B582B000AF03460A46FB711346BB7185
:100FCC00FB79002B3ED1BB79032B00F2818001A26F
:100FDC0052F823F0F10F0008091000082110000846
:100FEC0039100008002210213E4801F07AF9002245
:100FFC004FF480613B4801F074F96EE0012210213E
:10100C00384801F06EF901224FF48061354801F047
:10101C0068F962E000221021324801F062F90122E5
:10102C004FF480612F4801F05CF956E00122102149
:10103C002C4801F056F900224FF48061294801F048
:10104C0050F94AE0FB79012B44D1BB79032B43D8EF
:10105C0001A252F823F000BF751000088F10000891
:10106C00A9100008C310000800224FF480711E481C
:10107C0001F037F900224FF400711B4801F031F9EF
:10108C002BE001224FF48071174801F02AF901225C
:10109C004FF40071144801F024F91EE000224FF4C3
:1010AC008071114801F01DF901224FF400710E48B6
:1010BC0001F017F911E001224FF480710A4801F098
:1010CC0010F900224FF40071074801F00AF904E00E
:1010DC0000BF02E000BF00E000BF00BF0837BD4604
:1010EC0080BD00BF000C01400008014080B582B0FB
:1010FC0000AF0346FB71FB79022B13D0022B17DCDC
:10110C00002B02D0012B07D012E04FF400510B48FA
:10111C0001F0D0F803460DE00121094801F0CAF8AE
:10112C00034607E00221064801F0C4F8034601E03B
:10113C0000BF012318460837BD4680BD0010014092
:10114C000008014090B583B000AF0023FB710EE1A5
:10115C00FA79FB798A49895C8A4AD154FC79FB7902
:10116C001846FFF7C3FF03461A46854B1A55FB7901
:10117C00834AD25CFB798349CB5C9A4205D1FA79DC
:10118C00FB797F49895C804AD154FB797E4AD35CD8
:10119C00012B38D1FB797D4AD35C052B03D1FB792C
:1011AC007A4A0021D154FB79784AD35C062B03D1BF
:1011BC00FB79764A0021D154FB79744AD35C012B1C
:1011CC0003D1FB79714A0221D154FB796F4AD35C6C
:1011DC00032B03D1FB796D4A0421D154FB796C4A62
:1011EC00002122F81310FB796A4A32F81330132BC2
:1011FC0034D8FB79674A32F81320013291B2654A30
:10120C0022F813102AE0FB795F4AD35C002B25D11E
:10121C00FB795E4AD35C002B03D1FB795B4A01213D
:10122C00D154FB79594AD35C022B03D1FB79574A31
:10123C000321D154FB79574A002122F81310FB7972
:10124C00534A32F81330632B08D8FB79504A32F8E2
:10125C001320013291B24E4A22F81310FB794B4AFB
:10126C00D35C002B03D1FB794B4A0021D154FB7981
:10127C00464AD35C012B04D0FB79444AD35C052B42
:10128C0011D1FB79424A32F81330632B0BD9FB791D
:10129C00424A0121D154FB793F4A0221D154FB79B6
:1012AC003A4A0521D154FB79384AD35C022B11D12F
:1012BC00FB79384A32F81330132B0BD9FB79384AA7
:1012CC000121D154FB79344A0121D154FB792F4AA5
:1012DC000021D154FB792D4AD35C032B04D0FB792C
:1012EC002A4AD35C062B11D1FB79294A32F81330E8
:1012FC00632B0BD9FB792B4A0121D154FB79264A5C
:10130C000421D154FB79214A0621D154FB791F4A7F
:10131C00D35C042B11D1FB791E4A32F81330132BFA
:10132C000BD9FB79204A0121D154FB791A4A0321AC
:10133C00D154FB79154A0021D154FB79002B02D1F1
:10134C001A4B00221A70FB790F4AD35C002B0CBF8E
:10135C0001230023DBB25AB2144B1B785BB213434C
:10136C005BB2DAB2114B1A70FB790133FB71FB796A
:10137C00022B7FF6EDAE00BF00BF0C37BD4690BD13
:10138C00B0000020B400002014000020C800002091
:10139C00B8000020C0000020E4000020E80000207D
:1013AC00F4000020F8000020DC000020AC0000203D
:1013BC0080B500AF03220021094804F0B5F80322E0
:1013CC000021084804F0B0F803220021064804F07C
:1013DC00ABF803220021054804F0A6F800BF80BD3D
:1013EC00F4000020E8000020DC000020F8000020C1
:1013FC0080B500AF0A4B1B78012B05D101224FF4AD
:10140C000071084800F06DFF054B1B78002B05D1CF
:10141C0000224FF40071034800F063FF00BF80BD51
:10142C00AC0000200010014080B586B000AF00F089
:10143C00A3FB00F04BF800F01FF900F089F800F066
:10144C00CFF800F0B3F8FFF721F9FEF7E3FE3B1DF0
:10145C001949184604F070F800210020FEF724FF0B
:10146C003B1D1846FEF704FF3B1D1449184604F0BB
:10147C0063F800210120FEF717FF3B1D1846FEF70D
:10148C00F7FE4FF47A7000F0D9FBFEF706FF32221C
:10149C0000210B48FFF768F9322232210948FFF787
:1014AC0063F9FFF7A5FFFFF79FF9074B1B78DBB23A
:1014BC001846FFF73DFCF4E7985E0008AC5E0008A8
:1014CC00ED020008A1030008AB00002080B590B02D
:1014DC0000AF07F1180328220021184604F024F865
:1014EC003B1D00221A605A609A60DA601A610A2366
:1014FC00BB610123BB621023FB6201233B6302230C
:10150C007B630023BB630023FB6307F118031846BE
:10151C0002F0F4FF0346002B01D000F04BF90F232F
:10152C007B600223BB600023FB6000233B61002334
:10153C007B613B1D0021184603F060FA0346002B2B
:10154C0001D000F037F900BF4037BD4680BD000028
:10155C0080B500AF124B134A1A60114B124A5A60F5
:10156C000F4B00229A600E4B0022DA600C4B4FF4AA
:10157C0080421A610A4B00225A61094B00229A617F
:10158C00074B0022DA61064B00221A62044800F075
:10159C00D9FE0346002B01D000F00CF900BF80BD32
:1015AC00AC01002000540040A086010080B500AFC3
:1015BC00094B0A4A1A60084B00225A60064B40F647
:1015CC00FF729A60044802F045FF0346002B01D0DD
:1015DC0000F0F0F800BF80BD000200200030004099
:1015EC0080B586B000AF07F1080300221A605A607C
:1015FC009A60DA603B4600221A605A601D4B4FF02D
:10160C0080421A601B4B09225A601A4B00229A60C6
:10161C00184B41F63F72DA60164B00221A61154BDB
:10162C0000229A61134803F063FB0346002B01D0A0
:10163C0000F0C0F84FF48053BB6007F10803194663
:10164C000C4803F0E7FC0346002B01D000F0B2F885
:10165C0000233B6000237B603B461946054803F0A2
:10166C00C9FE0346002B01D000F0A4F800BF1837C8
:10167C00BD4680BD0C02002080B588B000AF07F1DC
:10168C00100300221A605A609A60DA60454B9B691D
:10169C00444A43F010039361424B9B6903F01003DF
:1016AC00FB60FB683F4B9B693E4A43F02003936110
:1016BC003C4B9B6903F02003BB60BB68394B9B69B7
:1016CC00384A43F004039361364B9B6903F00403DF
:1016DC007B607B68334B9B69324A43F00803936110
:1016EC00304B9B6903F008033B603B6800224FF4CE
:1016FC0048712D4800F0F5FD00224FF482612B4813
:10170C0000F0EFFD00224FF40071294800F0E9FDD4
:10171C004FF400533B6100237B610023BB6107F155
:10172C0010031946224800F041FC03233B610023BF
:10173C007B610023BB6107F1100319461A4800F0C6
:10174C0035FC4FF448733B6101237B610023BB6183
:10175C000223FB6107F110031946134800F026FC25
:10176C004FF482633B6101237B610023BB61022345
:10177C00FB6107F1100319460C4800F017FC4FF4FD
:10178C0000733B6101237B610023BB610223FB617E
:10179C0007F110031946064800F008FC00BF20377B
:1017AC00BD4680BD0010024000080140000C014005
:1017BC000010014080B400AF72B600BFFEE700001D
:1017CC0080B485B000AF154B9B69144A43F00103FC
:1017DC009361124B9B6903F00103BB60BB680F4B19
:1017EC00DB690E4A43F08053D3610C4BDB6903F089
:1017FC0080537B607B680A4B5B68FB60FB6823F063
:10180C00E063FB60FB6843F00073FB60044AFB6819
:10181C00536000BF1437BD4680BC704700100240B7
:10182C000000014080B58AB000AF786007F1140366
:10183C0000221A605A609A60DA607B681B68214A41
:10184C0093423AD1204B9B691F4A43F008039361A2
:10185C001D4B9B6903F008033B613B694FF44073DC
:10186C007B611223BB6103233B6207F1140319460E
:10187C00164800F09BFB164B5B687B627B6A43F05F
:10188C00E0637B627B6A43F002037B62104A7B6AF3
:10189C0053600D4BDB690C4A43F40013D3610A4BC4
:1018AC00DB6903F40013FB60FB68002200211F209E
:1018BC0000F0BFFA1F2000F0D8FA00BF2837BD4651
:1018CC0080BD00BF0054004000100240000C0140DD
:1018DC000000014080B584B000AF78607B681B6865
:1018EC00B3F1804F13D10C4BDB690B4A43F001036E
:1018FC00D361094BDB6903F00103FB60FB68002239
:10190C0000211C2000F095FA1C2000F0AEFA00BF5C
:10191C001037BD4680BD00BF0010024080B400AF40
:10192C00BFF34F8F00BF064BDB6803F4E062044942
:10193C00044B1343CB60BFF34F8F00BF00BFFDE7D9
:10194C0000ED00E00400FA0580B400AFFEE70000F3
:10195C0080B586B000AFFEF7A0FC3B1D06491846CB
:10196C0003F0EAFD00210020FEF79EFC3B1D18460B
:10197C00FEF77EFCFFF7D2FFBC5E000880B400AF20
:10198C00FEE780B400AFFEE780B400AFFEE780B4A2
:10199C0000AF00BFBD4680BC704780B400AF00BF35
:1019AC00BD4680BC704780B400AF00BFBD4680BC54
:1019BC00704780B500AF00F025F900BF80BD000076
:1019CC0080B500AF024803F035FA00BF80BD00BF00
:1019DC000C02002080B500AF024800F009FF00BFE8
:1019EC0080BD00BFAC01002080B586B000AF786030
:1019FC00144A154BD31A7B617B693B61134B1B68F3
:101A0C00002B02D1114B124A1A60104B1A687B68DA
:101A1C0013443A699A4207D203F05CFD03460C2248
:101A2C001A604FF0FF3309E0084B1B68FB60074B53
:101A3C001A687B681344054A1360FB68184618370C
:101A4C00BD4680BD0050002000040000CC000020EA
:101A5C006802002080B400AF00BFBD4680BC704758
:101A6C0080B582B000AF786039607B681B78022B40
:101A7C0030D0022B43DC002B02D0012B15D03EE0E2
:101A8C003B685B78002B48D17B6802221A703B685C
:101A9C001B7803211846FFF78BFA3B681A793B68D1
:101AAC005A700020FFF766FA37E03B685B78002B32
:101ABC0035D17B6800221A703B681B7801211846CF
:101ACC00FFF776FA3B689A783B685A700020FFF76C
:101ADC0051FA24E03B685B78002B22D17B68012211
:101AEC001A703B681B7802211846FFF761FA3B68B5
:101AFC00DA783B685A700020FFF73CFA11E07B68FB
:101B0C0000221A703B681B7801211846FFF750FA27
:101B1C003B689A783B685A7004E000BF02E000BF53
:101B2C0000E000BF00BF0837BD4680BDFFF792FF45
:101B3C000B480C490C4A002302E0D458C45004331F
:101B4C00C4188C42F9D3094A094C002301E01360F4
:101B5C000432A242FBD303F0C3FCFFF765FC7047D1
:101B6C00000000208C000020345F00088C00002056
:101B7C0068020020FEE7000080B500AF084B1B6830
:101B8C00074A43F010031360032000F047F90020CC
:101B9C0000F008F8FFF714FE0023184680BD00BFC4
:101BAC000020024080B582B000AF7860124B1A68FA
:101BBC00124B1B7819464FF47A73B3FBF1F3B2FB5B
:101BCC00F3F3184600F05FF90346002B01D0012314
:101BDC000EE07B680F2B0AD8002279684FF0FF309B
:101BEC0000F027F9064A7B681360002300E001230C
:101BFC0018460837BD4680BD180000202400002080
:101C0C002000002080B400AF054B1B781A46054B12
:101C1C001B681344034A136000BFBD4680BC704769
:101C2C00240000205402002080B400AF024B1B683B
:101C3C001846BD4680BC70475402002080B584B065
:101C4C0000AF7860FFF7F0FFB8607B68FB60FB6863
:101C5C00B3F1FF3F05D00A4B1B781A46FB681344BF
:101C6C00FB6000BFFFF7E0FF0246BB68D31AFA68BF
:101C7C009A42F7D800BF00BF1037BD4680BD00BFE9
:101C8C002400002080B485B000AF78607B6803F03E
:101C9C000703FB600C4BDB68BB60BA684FF6FF03B5
:101CAC001340BB60FB681A02BB68134343F0BF636D
:101CBC0043F40033BB60044ABB68D36000BF1437E5
:101CCC00BD4680BC704700BF00ED00E080B400AFA3
:101CDC00044BDB681B0A03F007031846BD4680BCA7
:101CEC00704700BF00ED00E080B483B000AF034646
:101CFC00FB7197F90730002B0BDBFB7903F01F020C
:101D0C00064997F907305B09012000FA02F241F805
:101D1C00232000BF0C37BD4680BC704700E100E0BB
:101D2C0080B483B000AF03463960FB7197F907307C
:101D3C00002B0ADB3B68DAB20C4997F90730120129
:101D4C00D2B20B4483F800230AE03B68DAB20849AC
:101D5C00FB7903F00F03043B1201D2B20B441A7649
:101D6C0000BF0C37BD4680BC704700BF00E100E0EF
:101D7C0000ED00E080B489B000AFF860B9607A6023
:101D8C00FB6803F00703FB61FB69C3F10703042B3A
:101D9C0028BF0423BB61FB690433062B02D9FB6902
:101DAC00033B00E000237B614FF0FF32BB6902FA7A
:101DBC0003F3DA43BB681A407B699A404FF0FF315A
:101DCC007B6901FA03F3D9437B680B401343184634
:101DDC002437BD4680BC704780B582B000AF7860B8
:101DEC007B68013BB3F1807F01D301230FE00A4AEA
:101DFC007B68013B53600F214FF0FF30FFF790FFE2
:101E0C00054B00229A60044B07221A6000231846E7
:101E1C000837BD4680BD00BF10E000E080B582B041
:101E2C0000AF78607868FFF72DFF00BF0837BD461C
:101E3C0080BD80B586B000AF0346B9607A60FB7395
:101E4C0000237B61FFF742FF78617A68B968786993
:101E5C00FFF790FF024697F90F3011461846FFF72F
:101E6C005FFF00BF1837BD4680BD80B582B000AFA4
:101E7C000346FB7197F907301846FFF735FF00BF93
:101E8C000837BD4680BD80B582B000AF78607868F9
:101E9C00FFF7A2FF034618460837BD4680BD000079
:101EAC0080B584B000AF78600023FB737B6893F837
:101EBC002130DBB2022B05D07B6804229A6301230C
:101ECC00FB7351E07B681B681A687B681B6822F007
:101EDC000E021A607B681B681A687B681B6822F00C
:101EEC0001021A607B681B68224A934229D07B68E6
:101EFC001B68214A934222D07B681B681F4A93427D
:101F0C001AD07B681B681E4A934212D07B681B68F0
:101F1C001C4A93420AD07B681B681B4A934202D12D
:101F2C004FF480130EE04FF080730BE04FF48033CE
:101F3C0008E04FF4805305E04FF4807302E0102367
:101F4C0000E00123114A53607B68012283F82120B1
:101F5C007B68002283F820207B685B6B002B03D00E
:101F6C007B685B6B78689847FB7B18461037BD46DF
:101F7C0080BD00BF080002401C000240300002403F
:101F8C0044000240580002406C0002400000024035
:101F9C0080B483B000AF78607B6893F82130DBB2FB
:101FAC0018460C37BD4680BC7047000080B48BB01F
:101FBC0000AF7860396000237B6200233B6269E1EB
:101FCC0001227B6A02FA03F3FB613B681B68FA6926
:101FDC001340BB61BA69FB699A4240F058813B6877
:101FEC005B689A4A93425ED0984A934275D8984A55
:101FFC00934258D0964A93426FD8964A934252D005
:10200C00944A934269D8944A93424CD0924A934250
:10201C0063D8924A934246D0904A93425DD8122B91
:10202C002AD8122B59D801A252F823F0B320000859
:10203C008D2000089F200008E1200008E720000800
:10204C00E7200008E7200008E7200008E720000848
:10205C00E7200008E7200008E7200008E720000838
:10206C00E7200008E7200008E7200008E720000828
:10207C0095200008A9200008794A934213D02CE03F
:10208C003B68DB683B6229E03B68DB6804333B62FE
:10209C0024E03B68DB6808333B621FE03B68DB688D
:1020AC000C333B621AE03B689B68002B02D1042383
:1020BC003B6213E03B689B68012B05D108233B6214
:1020CC007B68FA691A6109E008233B627B68FA694C
:1020DC005A6103E000233B6200E000BFBB69FF2BA9
:1020EC0001D87B6801E07B6804337B61BB69FF2B03
:1020FC0002D87B6A9B0002E07B6A083B9B003B6139
:10210C007B691A680F213B6901FA03F3DB431A4020
:10211C00396A3B6901FA03F31A437B691A603B681D
:10212C005B6803F08053002B00F0B1804D4B9B6932
:10213C004C4A43F0010393614A4B9B6903F0010342
:10214C00BB60BB68484A7B6A9B08023352F8233059
:10215C00FB607B6A03F003039B000F2202FA03F37C
:10216C00DB43FA681340FB607B68404A934213D010
:10217C007B683F4A93420DD07B683E4A934207D01E
:10218C007B683D4A934201D1032306E0042304E01B
:10219C00022302E0012300E000237A6A02F003022A
:1021AC0092009340FA681343FB602F497B6A9B08AB
:1021BC000233FA6841F823203B685B6803F4801310
:1021CC00002B06D02D4B9A682C49BB6913438B60AE
:1021DC0006E02A4B9A68BB69DB43284913408B60A5
:1021EC003B685B6803F40013002B06D0234BDA68C2
:1021FC002249BB691343CB6006E0204BDA68BB690C
:10220C00DB431E491340CB603B685B6803F400332F
:10221C00002B06D0194B5A681849BB6913434B6005
:10222C0006E0164B5A68BB69DB43144913404B60FC
:10223C003B685B6803F48033002B21D00F4B1A688A
:10224C000E49BB6913430B6021E000BF0000321044
:10225C0000003110000022100000211000001210AC
:10226C000000111000100240000001400008014065
:10227C00000C01400010014000140140000401401A
:10228C000B4B1A68BB69DB43094913400B607B6A33
:10229C0001337B623B681A687B6A22FA03F3002BDA
:1022AC007FF48EAE00BF00BF2C37BD4680BC70479C
:1022BC000004014080B485B000AF78600B467B8091
:1022CC007B689A687B881340002B02D00123FB7338
:1022DC0001E00023FB73FB7B18461437BD4680BC22
:1022EC00704780B483B000AF78600B467B80134698
:1022FC007B707B78002B03D07A887B681A6103E0B3
:10230C007B881A047B681A6100BF0C37BD4680BC01
:10231C00704780B485B000AF78600B467B807B68DB
:10232C00DB68FB607A88FB6813401A04FB68D943AE
:10233C007B880B401A437B681A6100BF1437BD467B
:10234C0080BC704780B584B000AF78607B68002B90
:10235C0001D101232BE17B6893F83D30DBB2002BDC
:10236C0006D17B68002283F83C207868FFF75AFA84
:10237C007B68242283F83D207B681B681A687B6885
:10238C001B6822F001021A607B681B681A687B6864
:10239C001B6842F400421A607B681B681A687B68F1
:1023AC001B6822F400421A6002F070FCF8607B6833
:1023BC005B68814A934207D8FB68804A934294BF7A
:1023CC0001230023DBB206E0FB687D4A934294BFF5
:1023DC0001230023DBB2002B01D00123E7E0FB68D3
:1023EC00784AA2FB03239B0CBB607B681B685B6871
:1023FC0023F03F017B681B68BA680A435A607B680C
:10240C001B681B6A23F03F017B685B686A4A934236
:10241C0002D8BB68013309E0BB684FF4967202FB2B
:10242C0003F3694AA2FB03239B0901337A68126800
:10243C000B4313627B681B68DB6923F44F4222F069
:10244C00FF027B685B685C498B4219D8FB68591E9C
:10245C007B685B685B00B1FBF3F3591C40F6FC73C3
:10246C000B40002B0AD0FB68591E7B685B685B0035
:10247C00B1FBF3F30133C3F30B0351E004234FE03F
:10248C007B689B68002B11D1FB68581E7B685968D0
:10249C000B465B000B44B0FBF3F30133C3F30B03AC
:1024AC00002B0CBF01230023DBB212E0FB68581E8B
:1024BC007B6859680B469B000B4499000B44B0FB9E
:1024CC00F3F30133C3F30B03002B0CBF01230023E5
:1024DC00DBB2002B01D0012322E07B689B68002B30
:1024EC000ED1FB68581E7B6859680B465B000B4489
:1024FC00B0FBF3F30133C3F30B0343F400430FE0DE
:10250C00FB68581E7B6859680B469B000B4499006E
:10251C000B44B0FBF3F30133C3F30B0343F440431D
:10252C00796809681343CB617B681B681B6823F0CF
:10253C00C0017B68DA697B681B6A1A437B681B687D
:10254C000A431A607B681B689B6823F4034323F0DF
:10255C00FF037A6811697A68D26811437A68126845
:10256C000B4393607B681B68DB6823F0FF017B687F
:10257C005A697B689B691A437B681B680A43DA605B
:10258C007B681B681A687B681B6842F001021A6042
:10259C007B6800221A647B68202283F83D207B68CC
:1025AC0000221A637B68002283F83E200023184621
:1025BC001037BD4680BD00BFA08601007F841E0081
:1025CC00FF083D0083DE1B43D34D621080B483B003
:1025DC0000AF78607B681B685B6903F08003802B1D
:1025EC0003D17B681B6800221A6100BF0C37BD4603
:1025FC0080BC704780B588B002AFF8607A601A462C
:10260C000B467B8113463B81FFF70EFB7861FB6821
:10261C0093F83D30DBB2202B40F0E0807B690093D7
:10262C00192301227049F86801F0F0FC0346002BD5
:10263C0001D00223D3E0FB6893F83C30012B01D18D
:10264C000223CCE0FB68012283F83C20FB681B686A
:10265C001B6803F00103012B07D0FB681B681A6889
:10266C00FB681B6842F001021A60FB681B681A6861
:10267C00FB681B6822F400621A60FB68212283F855
:10268C003D20FB68102283F83E20FB6800221A6470
:10269C00FB687A685A62FB683A895A85FB685B8DDD
:1026AC009AB2FB681A85FB68504ADA6279897B69B1
:1026BC003A6AF86801F080FB0346002B01D0012335
:1026CC008DE000233B61FB681B685B693B61FB6829
:1026DC001B689B693B613B6966E07A69396AF868FB
:1026EC0001F0AEFD0346002B0DD0FB681B6C042BD8
:1026FC0007D1FB681B681A68FB681B6842F4007200
:10270C001A6001236BE0FB685B6A1A78FB681B6834
:10271C001A61FB685B6A5A1CFB685A62FB685B8D2A
:10272C009BB2013B9AB2FB685A85FB681B8D013B3F
:10273C009AB2FB681A85FB681B685B6903F004039B
:10274C00042B1BD1FB681B8D002B17D0FB685B6A1D
:10275C001A78FB681B681A61FB685B6A5A1CFB6879
:10276C005A62FB685B8D9BB2013B9AB2FB685A853F
:10277C00FB681B8D013B9AB2FB681A857A69396A32
:10278C00F86801F0A5FD0346002B0DD0FB681B6C0F
:10279C00042B07D1FB681B681A68FB681B6842F4A2
:1027AC0000721A6001231AE0FB681B8D002B94D178
:1027BC00FB681B681A68FB681B6842F400721A609D
:1027CC00FB68202283F83D20FB68002283F83E2022
:1027DC00FB68002283F83C20002300E0022318460B
:1027EC001837BD4680BD00BF020010000000FFFF7F
:1027FC0080B588B000AF78600023BB617B681B6834
:10280C005B687B617B68DB6A3B617B6893F83E307D
:10281C00FB737B6893F83D30BB73FB7B102B03D0B1
:10282C00FB7B402B40F0C1807B681B689B69BB61C4
:10283C007B681B685B69FB61FB6903F00103002B80
:10284C000DD13B69B3F52A0F03D03B69B3F12A4F85
:10285C0001D1012300E00023012B00F03281FB6940
:10286C0003F00103002B0CD07B695B0A03F001031E
:10287C00002B06D0786801F0D3FD786800F0EAFCF4
:10288C0092E0FB69DB0803F00103002B09D07B69A4
:10289C005B0A03F00103002B03D0786800F05FFDA6
:1028AC0082E0FB695B0803F00103002B09D07B6914
:1028BC005B0A03F00103002B03D0786800F078FD6D
:1028CC0072E0BB699B0803F00103002B3BD07B68D3
:1028DC001B685B6803F40063B3F5006F00F0F380D2
:1028EC00FB69DB0903F00103002B0FD07B699B0A0A
:1028FC0003F00103002B09D0FB699B0803F00103D3
:10290C00002B03D1786800F042F94DE0FB699B087D
:10291C0003F00103002B00F0D6807B695B0A03F007
:10292C000103002B00F0CF80BB7B212B03D17868F7
:10293C0000F0C9F9C7E0FB7B402B40F0C4807868FD
:10294C0000F037FABFE07B681B685B6803F4006338
:10295C00B3F5006F00F0B780FB699B0903F001032E
:10296C00002B0FD07B699B0A03F00103002B09D0CD
:10297C00FB699B0803F00103002B03D1786800F07E
:10298C00B0FA11E0FB699B0803F00103002B00F087
:10299C009A807B695B0A03F00103002B00F09380A3
:1029AC00786800F066FB8EE08DE07B681B6C002B7A
:1029BC0004D07B681B685B69FB6107E07B681B6864
:1029CC009B69BB617B681B685B69FB61FB695B088E
:1029DC0003F00103002B12D07B695B0A03F00103A7
:1029EC00002B0CD07B681B6C002B03D07B681B6806
:1029FC009B69BB61B969786800F031FF66E0FB69DF
:102A0C001B0903F00103002B09D07B695B0A03F05F
:102A1C000103002B03D0786800F06CFF56E0BB7B01
:102A2C00212B02D0BB7B292B25D1FB69DB0903F0C1
:102A3C000103002B0FD07B699B0A03F00103002BD1
:102A4C0009D0FB699B0803F00103002B03D17868C4
:102A5C0000F049FE39E0FB699B0803F00103002BF1
:102A6C0033D07B695B0A03F00103002B2DD078680F
:102A7C0000F076FE29E0FB699B0903F00103002BB3
:102A8C000FD07B699B0A03F00103002B09D0FB6973
:102A9C009B0803F00103002B03D1786800F080FE43
:102AAC0014E0FB699B0803F00103002B0ED07B693B
:102ABC005B0A03F00103002B08D0786800F0AEFE2F
:102ACC0004E000BF02E000BF00E000BF2037BD46BD
:102ADC0080BD80B483B000AF786000BF0C37BD46BA
:102AEC0080BC704780B483B000AF786000BF0C37F7
:102AFC00BD4680BC704780B483B000AF786000BF27
:102B0C000C37BD4680BC704780B483B000AF786092
:102B1C0000BF0C37BD4680BC704780B483B000AF9B
:102B2C0078600B46FB7013463B8000BF0C37BD46EC
:102B3C0080BC704780B483B000AF786000BF0C37A6
:102B4C00BD4680BC704780B483B000AF786000BFD6
:102B5C000C37BD4680BC704780B483B000AF786042
:102B6C0000BF0C37BD4680BC704780B483B000AF4B
:102B7C00786000BF0C37BD4680BC704780B483B012
:102B8C0000AF786000BF0C37BD4680BC704780B585
:102B9C0084B000AF78607B6893F83D30FB737B6842
:102BAC0093F83E30BB737B68DB6ABB607B681B8D24
:102BBC00002B50D1FB7B212B4DD1BB68082B1DD09A
:102BCC00BB68202B1AD0BB6813F5803F16D07B68EE
:102BDC001B685A687B681B6822F4E0625A607B6849
:102BEC0011221A637B68002283F83E207B68202226
:102BFC0083F83D207868FFF76CFF60E07B681B680A
:102C0C005A687B681B6822F4E0625A607B681B6818
:102C1C001A687B681B6842F400721A607B68002299
:102C2C001A637B68202283F83D207B6893F83E3042
:102C3C00DBB2402B07D17B68002283F83E207868FA
:102C4C00FFF781FF3BE07B68002283F83E20786829
:102C5C00FFF73FFF33E0FB7B212B05D0BB7B402BE9
:102C6C002DD1FB7B222B2AD17B685B8D9BB2002B59
:102C7C0008D17B681B685A687B681B6822F48062E9
:102C8C005A601CE07B6893F83E30DBB2402B03D1DA
:102C9C00786800F08EF812E07B685B6A1A787B68C3
:102CAC001B681A617B685B6A5A1C7B685A627B687A
:102CBC005B8D9BB2013B9AB27B685A85FFE700BFE4
:102CCC001037BD4680BD80B584B000AF78607B689E
:102CDC00DB6AFB607B6893F83D30DBB2212B64D15F
:102CEC007B685B8D9BB2002B12D07B685B6A1A7879
:102CFC007B681B681A617B685B6A5A1C7B685A622A
:102D0C007B685B8D9BB2013B9AB27B685A854CE029
:102D1C00FB68082B1DD0FB68202B1AD0FB6813F521
:102D2C00803F16D07B681B685A687B681B6822F44E
:102D3C00E0625A607B6811221A637B68002283F878
:102D4C003E207B68202283F83D207868FFF7C1FE87
:102D5C002BE07B681B685A687B681B6822F4E06276
:102D6C005A607B681B681A687B681B6842F40072A7
:102D7C001A607B6800221A637B68202283F83D204E
:102D8C007B6893F83E30DBB2402B07D17B68002286
:102D9C0083F83E207868FFF7D6FE06E07B680022B9
:102DAC0083F83E207868FFF794FE00BF1037BD46CD
:102DBC0080BD80B584B000AF78607B6893F83D30FF
:102DCC00FB737B681B6D002B1DD17B68DB6C012BAF
:102DDC000BD17B689B6CDAB27B681B681A617B68D1
:102DEC001B6D9A1C7B681A6577E07B689B6C9BB2A9
:102DFC001B12DAB27B681B681A617B681B6D5A1C4C
:102E0C007B681A6569E07B681B6D012B0BD17B68B5
:102E1C009B6CDAB27B681B681A617B681B6D5A1C51
:102E2C007B681A6559E07B681B6D022B52D1FB7BCA
:102E3C00222B0DD17B681B681A687B681B6842F4D7
:102E4C0080721A607B681B6D5A1C7B681A6544E0A3
:102E5C007B685B8D9BB2002B15D0FB7B212B12D199
:102E6C007B685B6A1A787B681B681A617B685B6A93
:102E7C005A1C7B685A627B685B8D9BB2013B9AB291
:102E8C007B685A8529E07B685B8D9BB2002B24D133
:102E9C00FB7B212B21D17B681B685A687B681B68E4
:102EAC0022F4E0625A607B681B681A687B681B68B6
:102EBC0042F400721A607B6800221A637B6820223D
:102ECC0083F83D207B68002283F83E207868FFF76A
:102EDC003AFE02E07868FFF779FB00BF1037BD4679
:102EEC0080BD80B584B000AF78607B6893F83D30CE
:102EFC00DBB2222B40F0B9807B68DB6AFB607B681D
:102F0C005B8D9BB2BB60BB68032B21D97B681B68B4
:102F1C001A697B685B6AD2B21A707B685B6A5A1C4E
:102F2C007B685A627B685B8D9BB2013B9AB27B6873
:102F3C005A857B685B8D9BB2032B40F096807B6837
:102F4C001B685A687B681B6822F480625A608CE0AC
:102F5C007B68DB6A022B7FD0BB68012B02D0BB687D
:102F6C00002B79D1786801F0FBF90346002B4CD18A
:102F7C007B681B681A687B681B6822F480621A6085
:102F8C007B681B685A687B681B6822F4E0625A6095
:102F9C007B681B681A697B685B6AD2B21A707B68A3
:102FAC005B6A5A1C7B685A627B685B8D9BB2013BE7
:102FBC009AB27B685A857B68202283F83D207B6817
:102FCC0093F83E30DBB2402B0AD17B68002283F8A9
:102FDC003E207B6800221A637868FFF7BDFD44E051
:102FEC007B68002283F83E20FB68082B02D0FB682C
:102FFC00202B03D17B6800221A6302E07B6812222B
:10300C001A637868FFF76EFD2FE07B681B685A68BF
:10301C007B681B6822F4E0625A607B681B681A6943
:10302C007B685B6AD2B21A707B685B6A5A1C7B68DD
:10303C005A627B685B8D9BB2013B9AB27B685A8566
:10304C007B68202283F83D207B68002283F83E2099
:10305C007868FFF78AFD08E07B681B685A687B6814
:10306C001B6822F480625A60FFE700BF1037BD4630
:10307C0080BD80B584B000AF78607B68DB6AFB6094
:10308C007B685B8D9BB2042B1BD17B681B685A68D9
:10309C007B681B6822F480625A607B681B681A6923
:1030AC007B685B6AD2B21A707B685B6A5A1C7B685D
:1030BC005A627B685B8D9BB2013B9AB27B685A85E6
:1030CC00C4E07B685B8D9BB2032B29D17B681B68AA
:1030DC005A687B681B6822F480625A60FB68042B78
:1030EC000AD0FB68022B07D07B681B681A687B68C8
:1030FC001B6822F480621A607B681B681A697B6803
:10310C005B6AD2B21A707B685B6A5A1C7B685A6223
:10311C007B685B8D9BB2013B9AB27B685A8595E0CC
:10312C007B685B8D9BB2022B7DD1FB68012B02D09F
:10313C00FB68102B08D17B681B681A687B681B68BE
:10314C0022F480621A6016E0FB68042B02D0FB6844
:10315C00022B08D17B681B681A687B681B6842F4D9
:10316C0080621A6007E07B681B681A687B681B68C2
:10317C0042F400721A607B681B681A697B685B6A90
:10318C00D2B21A707B685B6A5A1C7B685A627B6885
:10319C005B8D9BB2013B9AB27B685A857B681B683E
:1031AC001A697B685B6AD2B21A707B685B6A5A1CBC
:1031BC007B685A627B685B8D9BB2013B9AB27B68E1
:1031CC005A857B681B685A687B681B6822F44072BE
:1031DC005A607B68202283F83D207B6893F83E3050
:1031EC00DBB2402B0AD17B68002283F83E207B683F
:1031FC0000221A637868FFF7AFFC27E07B68002297
:10320C0083F83E20FB68082B02D0FB68202B03D1EF
:10321C007B6800221A6302E07B6812221A637868CA
:10322C00FFF760FC12E07B681B681A697B685B6ABD
:10323C00D2B21A707B685B6A5A1C7B685A627B68D4
:10324C005B8D9BB2013B9AB27B685A8500BF1037ED
:10325C00BD4680BD80B483B000AF78607B6893F8C6
:10326C003E30DBB2402B17D17B681B6D002B09D194
:10327C007B685B6CDBB21A467B681B6802F0FE0253
:10328C001A6167E07B685B6CDBB243F00103DAB276
:10329C007B681B681A615DE07B681B69B3F5804F26
:1032AC0033D17B6893F83D30DBB2212B09D17B689D
:1032BC005B6CDBB21A467B681B6802F0FE021A617B
:1032CC0008E07B685B6CDBB243F00103DAB27B682D
:1032DC001B681A617B685B6B002B04D07B685B6B93
:1032EC009B6A002B08D17B689B6B002B32D07B68D0
:1032FC009B6B9B6A002B2DD07B681B685A687B6884
:10330C001B6842F400625A6024E07B681B6D002B42
:10331C000ED17B685B6C9BB2DB11DBB203F0060356
:10332C00DBB263F00F03DAB27B681B681A6111E041
:10333C007B681B6D012B0DD17B685B6C9BB2DB1129
:10334C00DBB203F00603DBB263F00E03DAB27B6888
:10335C001B681A6100BF0C37BD4680BC704780B437
:10336C0083B000AF78607B685B6CDAB27B681B68FB
:10337C001A617B685B6B002B04D07B685B6B9B6A70
:10338C00002B08D17B689B6B002B0CD07B689B6B54
:10339C009B6A002B07D07B681B685A687B681B688C
:1033AC0042F400625A6000BF0C37BD4680BC7047C7
:1033BC0080B491B000AF78607B6893F83E3087F8AA
:1033CC003F307B68DB6ABB637B681B6B7B637B6812
:1033DC0093F83D30DBB2222B40F074817B681B6D7F
:1033EC00002B0FD197F83F30402B0BD100233B63C0
:1033FC007B681B685B693B637B681B689B693B63F1
:10340C003B6B6BE17B681B6D002B1DD17B681B69D3
:10341C00B3F5404F18D10023FB627B681B685B69D6
:10342C00FB627B681B689B69FB62FB6A7B681B68A1
:10343C001A687B681B6842F480721A607B681B6D8B
:10344C005A1C7B681A6549E17B685B8D9BB2002B2B
:10345C0013D10023BB627B681B685B69BB627B6812
:10346C001B689B69BB62BB6A7B681B681A687B68BC
:10347C001B6842F400721A6020E17B685B8D9BB282
:10348C00012B40F08A80BB6B13F5803F37D17B68F2
:10349C001B681A687B681B6822F480621A607B6860
:1034AC001B685B6803F40063B3F5006F13D17B6892
:1034BC001B681A687B681B6822F480621A60002300
:1034CC007B627B681B685B697B627B681B689B69A2
:1034DC007B627B6AF2E000233B627B681B685B6962
:1034EC003B627B681B689B693B623B6A7B681B6821
:1034FC001A687B681B6842F400721A60DEE0BB6BD2
:10350C00082B2ED0BB6B202B2BD07B6B122B02D11C
:10351C00BB6B012B25D1BB6B042B0ED0BB6B022BD1
:10352C000BD0BB6B102B08D07B681B681A687B68B0
:10353C001B6822F480621A6007E07B681B681A68BB
:10354C007B681B6842F480621A600023FB617B6815
:10355C001B685B69FB617B681B689B69FB61FB6992
:10356C00ACE07B681B681A687B681B6822F480627D
:10357C001A600023BB617B681B685B69BB617B685D
:10358C001B689B69BB61BB697B681B681A687B689D
:10359C001B6842F400721A6090E07B685B8D9BB2F2
:1035AC00022B58D1BB6B042B21D0BB6B022B1ED032
:1035BC00BB6B102B1BD07B681B681A687B681B6865
:1035CC0042F400621A6000237B617B681B685B69B4
:1035DC007B617B681B689B697B617B697B681B6873
:1035EC001A687B681B6822F480621A6012E07B68A0
:1035FC001B681A687B681B6842F480621A6000239F
:10360C003B617B681B685B693B617B681B689B69E2
:10361C003B613B697B681B685B6803F40063B3F533
:10362C00006F4BD1BB6B13F5803F0BD0BB6B012BE9
:10363C0008D0BB6B082B05D0BB6B102B02D0BB6B1F
:10364C00202B3BD17B681B685A687B681B6842F453
:10365C0080525A6032E07B681B681A687B681B6872
:10366C0042F480621A607B681B685B6803F4006339
:10367C00B3F5006F17D1BB6B13F5803F0BD0BB6B51
:10368C00012B08D0BB6B082B05D0BB6B102B02D0C9
:10369C00BB6B202B07D17B681B685A687B681B6847
:1036AC0042F480525A600023FB607B681B685B69A4
:1036BC00FB607B681B689B69FB60FB687B68002276
:1036CC001A650BE00023BB607B681B685B69BB6001
:1036DC007B681B689B69BB60BB68FFE700BF443716
:1036EC00BD4680BC704780B584B000AF78607B6805
:1036FC0093F83D30FB737B685B8D9BB2002B2BD01A
:10370C007B685B6A1A787B681B681A617B685B6AEA
:10371C005A1C7B685A627B685B8D9BB2013B9AB2E8
:10372C007B685A857B685B8D9BB2002B14D1FB7B2D
:10373C00292B11D17B681B685A687B681B6822F4A3
:10374C0080625A607B6821221A637B68282283F886
:10375C003D207868FFF7CFF900BF1037BD4680BD1C
:10376C0080B483B000AF78607B685B8D9BB2002B1C
:10377C0011D07B685B6A1A787B681B681A617B685E
:10378C005B6A5A1C7B685A627B685B8D9BB2013BFF
:10379C009AB27B685A8500BF0C37BD4680BC704717
:1037AC0080B584B000AF78607B6893F83D30FB73D4
:1037BC007B685B8D9BB2002B2CD07B681B681A69D5
:1037CC007B685B6AD2B21A707B685B6A5A1C7B6836
:1037DC005A627B685B8D9BB2013B9AB27B685A85BF
:1037EC007B685B8D9BB2002B14D1FB7B2A2B11D1F8
:1037FC007B681B685A687B681B6822F480625A607D
:10380C007B6822221A637B68282283F83D20786823
:10381C00FFF77AF900BF1037BD4680BD80B483B086
:10382C0000AF78607B685B8D9BB2002B12D07B68FD
:10383C001B681A697B685B6AD2B21A707B685B6A18
:10384C005A1C7B685A627B685B8D9BB2013B9AB2B7
:10385C007B685A8500BF0C37BD4680BC704780B56D
:10386C0084B000AF786039600023FB737B6893F8F9
:10387C003D30DBB203F02803282B27D17B681B6873
:10388C005A687B681B6822F480625A603B689B080C
:10389C0003F00103002B01D10123FB733B68DB090F
:1038AC0003F00103002B03D17B68DB68BB8102E0D2
:1038BC007B689B69BB817B68002283F83C20BA89BA
:1038CC00FB7B19467868FFF728F90EE00023BB60F4
:1038DC007B681B685B69BB607B681B689B69BB6012
:1038EC00BB687B68002283F83C2000BF1037BD46C4
:1038FC0080BD000080B584B000AF78607B6893F821
:10390C003D30FB737B681B685A687B681B6822F42C
:10391C00E0625A600023BB607B681B685B69BB601C
:10392C007B681B681A687B681B6842F001021A608E
:10393C00BB687B681B681A687B681B6822F4806212
:10394C001A607B681B685B6803F40063B3F5006F57
:10395C0072D1FB7B222B02D0FB7B2A2B35D17B68CF
:10396C009B6B1B685B689AB27B685A857B685B8D26
:10397C009BB2002B05D07B681B6C43F004027B6868
:10398C001A647B681B685A687B681B6822F40062A7
:10399C005A607B689B6B1846FEF7FAFA0346012BBC
:1039AC0049D07B689B6B694A5A637B689B6B184652
:1039BC00FEF776FA0346002B3DD07B689B6B5B6B66
:1039CC007A68926B1046984735E07B685B6B1B6896
:1039DC005B689AB27B685A857B685B8D9BB2002BC7
:1039EC0005D07B681B6C43F004027B681A647B680F
:1039FC001B685A687B681B6822F400625A607B68FB
:103A0C005B6B1846FEF7C4FA0346012B14D07B6897
:103A1C005B6B4E4A5A637B685B6B1846FEF740FA49
:103A2C000346002B08D07B685B6B5B6B7A68526B30
:103A3C001046984700E000BF7B685B8D9BB2002B63
:103A4C003ED07B681B685B6903F00403042B12D126
:103A5C007B681B681A697B685B6AD2B21A707B68D8
:103A6C005B6A5A1C7B685A627B685B8D9BB2013B1C
:103A7C009AB27B685A857B681B685B6903F04003CC
:103A8C00402B12D17B681B681A697B685B6AD2B2C7
:103A9C001A707B685B6A5A1C7B685A627B685B8D08
:103AAC009BB2013B9AB27B685A857B685B8D9BB25B
:103ABC00002B05D07B681B6C43F004027B681A64F6
:103ACC007B681B6C002B03D0786800F043F839E05E
:103ADC00FB7B2A2B09D17B6800221A637B68282286
:103AEC0083F83D207868FFF70FF87B6893F83D303A
:103AFC00DBB2282B11D17B68154ADA627B68002275
:103B0C001A637B68202283F83D207B68002283F8AF
:103B1C003E207868FFF70EF814E07B681B6B222BB5
:103B2C0002D0FB7B222B0DD17B6800221A637B68B1
:103B3C00202283F83D207B68002283F83E207868A1
:103B4C00FEF7E2FF00BF1037BD4680BDC93E00083E
:103B5C000000FFFF80B584B000AF78607B6893F8FD
:103B6C003D30FB737B6893F83E30BB73BB7B102BF3
:103B7C0002D0BB7B402B0AD1FB7B222B07D17B686D
:103B8C001B681A687B681B6822F400621A60FB7B56
:103B9C0003F02803282B07D17B6800221A637B686B
:103BAC00282283F83D2015E07B681B685B6803F4D2
:103BBC000063B3F5006F0AD0FB7B602B07D07B68EA
:103BCC00202283F83D207B68002283F83E207B680E
:103BDC0000221A637B681B685B6803F40063B3F50F
:103BEC00006F62D17B681B685A687B681B6822F483
:103BFC0000625A607B685B6B93F82130DBB2012B5F
:103C0C0020D07B685B6B6A4A5A637B685B6B184697
:103C1C00FEF746F90346002B00F089807B681B6891
:103C2C001A687B681B6822F001021A607B682022EC
:103C3C0083F83D207B685B6B5B6B7A68526B10463C
:103C4C00984774E07B689B6B594A5A637B689B6B03
:103C5C001846FEF725F90346002B68D07B681B68D5
:103C6C005B6903F04003402B0BD17B681B681A691E
:103C7C007B685B6AD2B21A707B685B6A5A1C7B6881
:103C8C005A627B681B681A687B681B6822F0010209
:103C9C001A607B68202283F83D207B689B6B5B6BF2
:103CAC007A68926B1046984741E07B6893F83D30F8
:103CBC00DBB2602B25D17B68202283F83D207B680A
:103CCC0000221A647B681B685B6903F04003402B7D
:103CDC000BD17B681B681A697B685B6AD2B21A705D
:103CEC007B685B6A5A1C7B685A627B681B681A6823
:103CFC007B681B6822F001021A607868FEF73EFFB1
:103D0C0015E07B681B685B6903F04003402B0BD10B
:103D1C007B681B681A697B685B6AD2B21A707B6815
:103D2C005B6A5A1C7B685A627868FEF71EFF7B68D8
:103D3C001B6CBB60BB6803F00103002B0ED1BB688E
:103D4C0003F00203002B09D1BB6803F00403002B22
:103D5C0004D1BB6803F00803002B07D07B681B68F9
:103D6C005A687B681B6822F4E0625A607B6893F89F
:103D7C003D30FB737B681B6C03F00403042B13D1E5
:103D8C00FB7B282B10D17B680A4ADA627B68002205
:103D9C001A637B68202283F83D207B68002283F81D
:103DAC003E207868FEF7C6FE00BF1037BD4680BDCA
:103DBC00C93E00080000FFFF80B588B002AFF86074
:103DCC007A603B600B467B81FB68DB6A7B617B69BD
:103DDC00082B06D07B69012B03D07B6913F5803F40
:103DEC0008D1FB681B681A68FB681B6842F4807278
:103DFC001A600BE0FB681B6B122B07D1FB681B686E
:103E0C001A68FB681B6842F480721A603B68009366
:103E1C007B6800224FF00111F86800F0F7F80346B8
:103E2C00002B0DD0FB681B681B6803F48073B3F583
:103E3C00807F03D1FB684FF400721A64032335E0D2
:103E4C00FB681B69B3F5804F08D17B89DBB21A463E
:103E5C00FB681B6802F0FE021A611BE07B89DB1118
:103E6C00DBB203F00603DBB263F00F03DAB2FB68DC
:103E7C001B681A613B687A680E49F86800F040F9D3
:103E8C000346002B01D0012310E07B89DAB2FB68DA
:103E9C001B681A613B687A680749F86800F030F9CA
:103EAC000346002B01D0012300E0002318461837ED
:103EBC00BD4680BD080001000200010080B586B03F
:103ECC0000AF78600023FB607B685B6A7B617B6979
:103EDC0093F83D30FB744B4B1B68DB084A4AA2FB42
:103EEC0003231A0A13469B001344DA00D31AFB600F
:103EFC00FB68002B06D17B691B6C43F020027B69AD
:103F0C001A640AE0FB68013BFB607B691B681B6859
:103F1C0003F40073B3F5007FEAD07B695B6B002B75
:103F2C0003D07B695B6B00229A627B699B6B002BD5
:103F3C0003D07B699B6B00229A627B691B681A68B1
:103F4C007B691B6822F480621A607B6900225A85A7
:103F5C007B695B6B002B03D07B695B6B00225A6324
:103F6C007B699B6B002B03D07B699B6B00225A6394
:103F7C007B691B681A687B691B6822F001021A6056
:103F8C007B6993F83D30DBB2602B0ED17B6920222C
:103F9C0083F83D207B69002283F83E207B69002258
:103FAC001A647869FEF7EAFD27E0FB7C03F028032E
:103FBC00282B17D17B691B681A687B691B6842F038
:103FCC0001021A607B691B681A687B691B6842F4E2
:103FDC0080621A607B6900221A637B69282283F84D
:103FEC003D2007E07B69202283F83D207B6900227D
:103FFC0083F83E207869FEF7B8FD00BF1837BD4640
:10400C0080BD00BF1800002089B5F81480B584B0BD
:10401C0000AFF860B9603B601346FB7148E03B6849
:10402C00B3F1FF3F44D0FDF7FFFD0246BB69D31A45
:10403C003A689A4202D33B68002B39D1BB681B0CFF
:10404C00DBB2012B0DD1FB681B685B69DA43BB68E3
:10405C0013409BB2002B0CBF01230023DBB21A468A
:10406C000CE0FB681B689B69DA43BB6813409BB28E
:10407C00002B0CBF01230023DBB21A46FB799A42BA
:10408C0016D1FB6800221A63FB68202283F83D20BE
:10409C00FB68002283F83E20FB681B6C43F0200277
:1040AC00FB681A64FB68002283F83C20012323E0A0
:1040BC00BB681B0CDBB2012B0DD1FB681B685B6969
:1040CC00DA43BB6813409BB2002B0CBF01230023C7
:1040DC00DBB21A460CE0FB681B689B69DA43BB68D1
:1040EC0013409BB2002B0CBF01230023DBB21A46FA
:1040FC00FB799A4293D0002318461037BD4680BDF9
:10410C0080B584B000AFF860B9607A603B6071E054
:10411C00FB681B685B6903F48063B3F5806F23D184
:10412C00FB681B681A68FB681B6842F400721A6013
:10413C00FB681B686FF480625A61FB6800221A638B
:10414C00FB68202283F83D20FB68002283F83E2088
:10415C00FB681B6C43F00402FB681A64FB680022CA
:10416C0083F83C20012367E07B68B3F1FF3F41D02B
:10417C00FDF75AFD02463B68D31A7A689A4202D37D
:10418C007B68002B36D1BB681B0CDBB2012B0CD12E
:10419C00FB681B685B69DA43BB6813409BB2002B5E
:1041AC0014BF01230023DBB20BE0FB681B689B6987
:1041BC00DA43BB6813409BB2002B14BF01230023CE
:1041CC00DBB2002B16D0FB6800221A63FB6820229E
:1041DC0083F83D20FB68002283F83E20FB681B6CB3
:1041EC0043F02002FB681A64FB68002283F83C2031
:1041FC00012321E0BB681B0CDBB2012B0CD1FB684B
:10420C001B685B69DA43BB6813409BB2002B14BF7D
:10421C0001230023DBB20BE0FB681B689B69DA43CC
:10422C00BB6813409BB2002B14BF01230023DBB2ED
:10423C00002B7FF46DAF002318461037BD4680BDB0
:10424C0080B584B000AFF860B9607A6034E0F8688B
:10425C0000F0B8F80346002B01D0012334E0BB6812
:10426C00B3F1FF3F28D0FDF7DFFC02467B68D31A81
:10427C00BA689A4202D3BB68002B1DD1FB681B683D
:10428C005B6903F08003802B16D0FB6800221A6355
:10429C00FB68202283F83D20FB68002283F83E2037
:1042AC00FB681B6C43F02002FB681A64FB6800225D
:1042BC0083F83C20012307E0FB681B685B6903F073
:1042CC008003802BC3D1002318461037BD4680BD18
:1042DC0080B584B000AFF860B9607A6034E0F868FB
:1042EC0000F070F80346002B01D0012334E0BB68CA
:1042FC00B3F1FF3F28D0FDF797FC02467B68D31A39
:10430C00BA689A4202D3BB68002B1DD1FB681B68AC
:10431C005B6903F00403042B16D0FB6800221A63BC
:10432C00FB68202283F83D20FB68002283F83E20A6
:10433C00FB681B6C43F02002FB681A64FB680022CC
:10434C0083F83C20012307E0FB681B685B6903F0E2
:10435C000403042BC3D1002318461037BD4680BD7F
:10436C0080B485B000AF78600023FB60134B1B68F2
:10437C00DB08134AA2FB03231A0A13469B001344BF
:10438C00FB60FB68013BFB60FB68002B07D17B6883
:10439C001B6C43F020027B681A64012308E07B68E5
:1043AC001B681B6803F40073B3F5007FE9D000238E
:1043BC0018461437BD4680BC704700BF180000205B
:1043CC0089B5F81480B483B000AF78607B681B6843
:1043DC005B6903F48063B3F5806F1BD17B681B684A
:1043EC006FF480625A617B6800221A637B6820221A
:1043FC0083F83D207B68002283F83E207B681B6C91
:10440C0043F004027B681A647B68002283F83C202A
:10441C00012300E0002318460C37BD4680BC7047D2
:10442C0080B483B000AF78607B68DB6AB3F52A0F89
:10443C0003D17B680122DA6207E07B68DB6AB3F1A7
:10444C002A4F02D17B680822DA6200BF0C37BD46C6
:10445C0080BC704780B584B000AF78607B68002B5F
:10446C0001D1012336E07B681B684CF6CC421A6004
:10447C007B681B6845F255521A607B681B687A682A
:10448C0052685A607B681B687A6892689A60FDF77C
:10449C00CBFBF86011E0FDF7C7FB0246FB68D31AB3
:1044AC0041F23C32934208D97B681B68DB6803F00D
:1044BC000303002B01D003230CE07B681B68DB6833
:1044CC0003F00303002BE6D17B681B684AF6AA2293
:1044DC001A60002318461037BD4680BD80B483B0E7
:1044EC0000AF78607B681B684AF6AA221A6000232A
:1044FC0018460C37BD4680BC7047000080B586B0AE
:10450C0000AF78607B68002B01D101236CE27B68E3
:10451C001B6803F00103002B00F08780924B5B6853
:10452C0003F00C03042B0CD08F4B5B6803F00C03D3
:10453C00082B12D18C4B5B6803F48033B3F5803FAE
:10454C000BD1894B1B6803F40033002B6CD07B68B8
:10455C005B68002B68D1012346E27B685B68B3F58E
:10456C00803F06D1804B1B687F4A43F48033136035
:10457C002EE07B685B68002B0CD17B4B1B687A4A66
:10458C0023F480331360784B1B68774A23F4802321
:10459C0013601DE07B685B68B3F5A02F0CD1724BE8
:1045AC001B68714A43F4802313606F4B1B686E4A7F
:1045BC0043F4803313600BE06B4B1B686A4A23F4A3
:1045CC0080331360684B1B68674A23F480231360A5
:1045DC007B685B68002B13D0FDF726FB386108E085
:1045EC00FDF722FB02463B69D31A642B01D9032346
:1045FC00FAE15D4B1B6803F40033002BF0D014E0A0
:10460C00FDF712FB386108E0FDF70EFB02463B6933
:10461C00D31A642B01D90323E6E1534B1B6803F433
:10462C000033002BF0D100E000BF7B681B6803F067
:10463C000203002B63D04C4B5B6803F00C03002B84
:10464C000BD0494B5B6803F00C03082B1CD1464B79
:10465C005B6803F48033002B16D1434B1B6803F0CB
:10466C000203002B05D07B681B69012B01D00123B1
:10467C00BAE13D4B1B6823F0F8027B685B69DB00F9
:10468C00394913430B603AE07B681B69002B20D03F
:10469C00364B01221A60FDF7C7FA386108E0FDF7C6
:1046AC00C3FA02463B69D31A022B01D903239BE1BF
:1046BC002D4B1B6803F00203002BF0D02A4B1B6818
:1046CC0023F0F8027B685B69DB00274913430B601E
:1046DC0015E0264B00221A60FDF7A6FA386108E0B7
:1046EC00FDF7A2FA02463B69D31A022B01D9032328
:1046FC007AE11D4B1B6803F00203002BF0D17B68A1
:10470C001B6803F00803002B3AD07B689B69002BD5
:10471C0019D0174B01221A60FDF786FA386108E0B0
:10472C00FDF782FA02463B69D31A022B01D9032307
:10473C005AE10D4B5B6A03F00203002BF0D0012011
:10474C0000F0B8FA1CE00A4B00221A60FDF76CFA74
:10475C0038610FE0FDF768FA02463B69D31A022B69
:10476C0008D9032340E100BF001002400000424280
:10477C00800442429E4B5B6A03F00203002BE9D19A
:10478C007B681B6803F00403002B00F0A680002359
:10479C00FB75974BDB6903F08053002B0DD1944BC9
:1047AC00DB69934A43F08053D361914BDB6903F08F
:1047BC008053BB60BB680123FB758E4B1B6803F4F5
:1047CC008073002B18D18B4B1B688A4A43F480737F
:1047DC001360FDF729FA386108E0FDF725FA024667
:1047EC003B69D31A642B01D90323FDE0814B1B6871
:1047FC0003F48073002BF0D07B68DB68012B06D1AF
:10480C007B4B1B6A7A4A43F0010313622DE07B68F1
:10481C00DB68002B0CD1764B1B6A754A23F0010325
:10482C001362734B1B6A724A23F0040313621CE07D
:10483C007B68DB68052B0CD16D4B1B6A6C4A43F013
:10484C00040313626A4B1B6A694A43F00103136247
:10485C000BE0674B1B6A664A23F001031362644B3F
:10486C001B6A634A23F0040313627B68DB68002B2A
:10487C0015D0FDF7D9F938610AE0FDF7D5F90246F4
:10488C003B69D31A41F28832934201D90323ABE03E
:10489C00574B1B6A03F00203002BEED014E0FDF71C
:1048AC00C3F938610AE0FDF7BFF902463B69D31A38
:1048BC0041F28832934201D9032395E04C4B1B6A99
:1048CC0003F00203002BEED1FB7D012B05D1484BED
:1048DC00DB69474A23F08053D3617B68DB69002B8B
:1048EC0000F08180424B5B6803F00C03082B61D015
:1048FC007B68DB69022B46D13F4B00221A60FDF727
:10490C0093F9386108E0FDF78FF902463B69D31A39
:10491C00022B01D9032367E0354B1B6803F00073AE
:10492C00002BF0D17B681B6AB3F5803F08D1304B6C
:10493C005B6823F400327B689B682D4913434B6002
:10494C002B4B5B6823F474127B68196A7B685B6A77
:10495C000B43274913434B60274B01221A60FDF789
:10496C0063F9386108E0FDF75FF902463B69D31A39
:10497C00022B01D9032337E01D4B1B6803F0007396
:10498C00002BF0D02FE01C4B00221A60FDF74CF9E5
:10499C00386108E0FDF748F902463B69D31A022B4F
:1049AC0001D9032320E0124B1B6803F00073002B8A
:1049BC00F0D118E07B68DB69012B01D1012313E0F6
:1049CC000B4B5B68FB60FB6803F480327B681B6AF3
:1049DC009A4206D1FB6803F470127B685B6A9A42B8
:1049EC0001D0012300E0002318461837BD4680BDD6
:1049FC0000100240007000406000424280B584B05C
:104A0C0000AF786039607B68002B01D10123D0E0C6
:104A1C006A4B1B6803F007033A689A4210D9674B3C
:104A2C001B6823F0070265493B6813430B60634B1B
:104A3C001B6803F007033A689A4201D00123B8E0DF
:104A4C007B681B6803F00203002B20D07B681B687B
:104A5C0003F00403002B05D0594B5B68584A43F410
:104A6C00E06353607B681B6803F00803002B05D0E0
:104A7C00534B5B68524A43F460535360504B5B6832
:104A8C0023F0F0027B689B684D4913434B607B68B5
:104A9C001B6803F00103002B40D07B685B68012B83
:104AAC0007D1474B1B6803F40033002B15D10123AE
:104ABC007FE07B685B68022B07D1414B1B6803F0DE
:104ACC000073002B09D1012373E03D4B1B6803F0ED
:104ADC000203002B01D101236BE0394B5B6823F0FF
:104AEC0003027B685B68364913434B60FDF79CF807
:104AFC00F8600AE0FDF798F80246FB68D31A41F219
:104B0C008832934201D9032353E02D4B5B6803F0A9
:104B1C000C027B685B689B009A42EBD1274B1B68AD
:104B2C0003F007033A689A4210D2244B1B6823F017
:104B3C00070222493B6813430B60204B1B6803F0B0
:104B4C0007033A689A4201D0012332E07B681B6864
:104B5C0003F00403002B08D0194B5B6823F4E062CC
:104B6C007B68DB68164913434B607B681B6803F05A
:104B7C000803002B09D0124B5B6823F460527B684E
:104B8C001B69DB000E4913434B6000F021F8024611
:104B9C000B4B5B681B0903F00F030A49CB5C22FA31
:104BAC0003F3094A1360094B1B681846FCF7FAFF1C
:104BBC00002318461037BD4680BD00BF00200240C0
:104BCC0000100240CC5E00081800002020000020DD
:104BDC0080B487B000AF0023FB600023BB600023D0
:104BEC007B6100237B6000233B611E4B5B68FB6099
:104BFC00FB6803F00C03042B02D0082B03D027E036
:104C0C00194B3B6127E0FB689B0C03F00F03174A21
:104C1C00D35C7B60FB6803F48033002B10D0114B0A
:104C2C005B685B0C03F00103114AD35CBB607B68CF
:104C3C000D4A02FB03F2BB68B2FBF3F37B6104E0A9
:104C4C007B680C4A02FB03F37B617B693B6102E0EE
:104C5C00054B3B6100BF3B6918461C37BD4680BC09
:104C6C00704700BF0010024000127A00E45E00089A
:104C7C00F45E000800093D0080B400AF024B1B68D5
:104C8C001846BD4680BC70471800002080B500AFA8
:104C9C00FFF7F2FF0246054B5B681B0A03F00703A4
:104CAC000349CB5C22FA03F3184680BD0010024086
:104CBC00DC5E000880B485B000AF78600A4B1B68DE
:104CCC000A4AA2FB03235B0A7A6802FB03F3FB602C
:104CDC0000BFFB685A1EFA60002BF9D100BF00BF61
:104CEC001437BD4680BC704718000020D34D6210AD
:104CFC0080B582B000AF78607B68002B01D10123B6
:104D0C0041E07B6893F83D30DBB2002B06D17B6829
:104D1C00002283F83C207868FCF7DCFD7B680222DB
:104D2C0083F83D207B681A687B680433194610466B
:104D3C0000F05CFA7B68012283F846207B68012234
:104D4C0083F83E207B68012283F83F207B68012298
:104D5C0083F840207B68012283F841207B68012284
:104D6C0083F842207B68012283F843207B68012270
:104D7C0083F844207B68012283F845207B6801225C
:104D8C0083F83D20002318460837BD4680BD00003F
:104D9C0080B485B000AF78607B6893F83D30DBB2AF
:104DAC00012B01D001233AE07B68022283F83D20DD
:104DBC007B681B68DA687B681B6842F00102DA606A
:104DCC007B681B68184A93420ED07B681B68B3F152
:104DDC00804F09D07B681B68144A934204D07B68CF
:104DEC001B68134A934211D17B681B689B6803F0C4
:104DFC000703FB60FB68062B10D07B681B681A68E6
:104E0C007B681B6842F001021A6007E07B681B6834
:104E1C001A687B681B6842F001021A60002318466E
:104E2C001437BD4680BC7047002C01400004004084
:104E3C000008004080B584B000AF78607B681B68C8
:104E4C00DB68FB607B681B681B69BB60BB6803F09D
:104E5C000203002B20D0FB6803F00203002B1BD0B5
:104E6C007B681B686FF002021A617B6801221A775B
:104E7C007B681B689B6903F00303002B03D07868E5
:104E8C0000F098F905E0786800F08BF9786800F08C
:104E9C009AF97B6800221A77BB6803F00403002B95
:104EAC0020D0FB6803F00403002B1BD07B681B682D
:104EBC006FF004021A617B6802221A777B681B6808
:104ECC009B6903F44073002B03D0786800F072F9EF
:104EDC0005E0786800F065F9786800F074F97B6893
:104EEC0000221A77BB6803F00803002B20D0FB6864
:104EFC0003F00803002B1BD07B681B686FF00802C3
:104F0C001A617B6804221A777B681B68DB6903F0E3
:104F1C000303002B03D0786800F04CF905E07868A7
:104F2C0000F03FF9786800F04EF97B6800221A77A0
:104F3C00BB6803F01003002B20D0FB6803F01003B8
:104F4C00002B1BD07B681B686FF010021A617B680A
:104F5C0008221A777B681B68DB6903F44073002B0B
:104F6C0003D0786800F026F905E0786800F019F9AC
:104F7C00786800F028F97B6800221A77BB6803F088
:104F8C000103002B0CD0FB6803F00103002B07D0AE
:104F9C007B681B686FF001021A617868FBF796FC5E
:104FAC00BB6803F08003002B0CD0FB6803F080037C
:104FBC00002B07D07B681B686FF080021A61786841
:104FCC0000F07FFABB6803F04003002B0CD0FB68A9
:104FDC0003F04003002B07D07B681B686FF0400286
:104FEC001A61786800F0F8F8BB6803F02003002B16
:104FFC000CD0FB6803F02003002B07D07B681B68E8
:10500C006FF020021A61786800F052FA00BF103776
:10501C00BD4680BD80B584B000AF78603960002398
:10502C00FB737B6893F83C30012B01D10223B4E075
:10503C007B68012283F83C207B68022283F83D20A8
:10504C007B681B689B68BB60BB6823F07703BB6005
:10505C00BB6823F47F43BB607B681B68BA689A60AB
:10506C003B681B68B3F5005F3ED0B3F5005F00F200
:10507C008780B3F5805F00F08680B3F5805F7FD8C2
:10508C00702B1AD0702B7BD8602B50D0602B77D81C
:10509C00502B3CD0502B73D8402B58D0402B6FD872
:1050AC00302B64D0302B6BD8202B60D0202B67D8C2
:1050BC00002B5CD0102B5AD062E07B6818683B68E0
:1050CC0099683B685A683B68DB6800F074F97B6848
:1050DC001B689B68BB60BB6843F07703BB607B6855
:1050EC001B68BA689A604FE07B6818683B689968DF
:1050FC003B685A683B68DB6800F05DF97B681B68AD
:10510C009A687B681B6842F480429A603CE07B683A
:10511C0018683B6859683B68DB681A4600F0D4F89D
:10512C007B681B685021184600F02BF92CE07B683B
:10513C0018683B6859683B68DB681A4600F0F2F85F
:10514C007B681B686021184600F01BF91CE07B682B
:10515C0018683B6859683B68DB681A4600F0B4F87D
:10516C007B681B684021184600F00BF90CE07B684B
:10517C001A683B681B681946104600F002F903E0F8
:10518C000123FB7300E000BF7B68012283F83D2004
:10519C007B68002283F83C20FB7B18461037BD4609
:1051AC0080BD80B483B000AF786000BF0C37BD46C3
:1051BC0080BC704780B483B000AF786000BF0C3700
:1051CC00BD4680BC704780B483B000AF786000BF30
:1051DC000C37BD4680BC704780B483B000AF78609C
:1051EC0000BF0C37BD4680BC7047000080B485B052
:1051FC0000AF786039607B681B68FB607B682F4A66
:10520C0093420BD07B68B3F1804F07D07B682C4A5C
:10521C00934203D07B682B4A934208D1FB6823F05E
:10522C007003FB603B685B68FA681343FB607B6848
:10523C00224A93420BD07B68B3F1804F07D07B6836
:10524C001F4A934203D07B681E4A934208D1FB68E5
:10525C0023F44073FB603B68DB68FA681343FB6024
:10526C00FB6823F080023B685B691343FB607B683F
:10527C00FA681A603B689A687B68DA623B681A685D
:10528C007B689A627B680D4A934203D13B681A692A
:10529C007B681A637B6801225A617B681B6903F087
:1052AC000103002B05D07B681B6923F001027B688E
:1052BC001A6100BF1437BD4680BC7047002C0140FA
:1052CC00000400400008004080B487B000AFF860D4
:1052DC00B9607A60FB681B6A7B61FB681B6A23F010
:1052EC000102FB681A62FB689B693B613B6923F016
:1052FC00F0033B617B681B013A6913433B617B699B
:10530C0023F00A037B617A69BB6813437B61FB68FA
:10531C003A699A61FB687A691A6200BF1C37BD460C
:10532C0080BC704780B487B000AFF860B9607A6019
:10533C00FB681B6A7B61FB681B6A23F01002FB682D
:10534C001A62FB689B693B613B6923F470433B61C8
:10535C007B681B033A6913433B617B6923F0A00311
:10536C007B61BB681B017A6913437B61FB683A69FB
:10537C009A61FB687A691A6200BF1C37BD4680BC13
:10538C00704780B485B000AF786039607B689B68EB
:10539C00FB60FB6823F07003FB603A68FB68134307
:1053AC0043F00703FB607B68FA689A6000BF143710
:1053BC00BD4680BC704780B487B000AFF860B96060
:1053CC007A603B60FB689B687B617B6923F47F435D
:1053DC007B613B681A027B681A43BB6813437A698A
:1053EC0013437B61FB687A699A6000BF1C37BD462A
:1053FC0080BC704780B485B000AF786039607B6842
:10540C0093F83C30012B01D1022346E07B6801224A
:10541C0083F83C207B68022283F83D207B681B6864
:10542C005B68FB607B681B689B68BB60FB6823F058
:10543C007003FB603B681B68FA681343FB607B6876
:10544C001B68FA685A607B681B68164A93420ED038
:10545C007B681B68B3F1804F09D07B681B68124ACC
:10546C00934204D07B681B68104A93420CD1BB68F2
:10547C0023F08003BB603B685B68BA681343BB6076
:10548C007B681B68BA689A607B68012283F83D20B0
:10549C007B68002283F83C20002318461437BD4655
:1054AC0080BC7047002C0140000400400008004004
:1054BC0080B483B000AF786000BF0C37BD4680BCB1
:1054CC00704780B483B000AF786000BF0C37BD4626
:1054DC0080BC7047014B1868704700BF2800002043
:1054EC0070B500260C4D0D4C641BA410A64209D1BE
:1054FC0000F05CFC00260A4D0A4C641BA410A6426A
:10550C0005D170BD55F8043B98470136EEE755F8C8
:10551C00043B98470136F2E72C5F00082C5F00082B
:10552C002C5F0008305F000803460244934200D110
:10553C00704703F8011BF9E70EB46FF0004100B59A
:10554C009CB01DAB02900690079104910848094944
:10555C0053F8042B0591006802A9019300F068F838
:10556C000022029B1A701CB05DF804EB03B070476C
:10557C00280000200802FFFF2DE9F0478E688246C4
:10558C009E420C4690461F4638D88A8912F4906F7A
:10559C0032D0256809690133A5EB010965694B44D3
:1055AC0005EB450505EBD5756D109D4238BF1D46C5
:1055BC00530531D5294600F053FB064650B90C2350
:1055CC004FF0FF30CAF80030A38943F04003A381A9
:1055DC00BDE8F0874A46216900F0CEFAA38923F48E
:1055EC00906343F08003A38126614E4426603E46BF
:1055FC006561A5EB0905A560BE4200D93E46324661
:10560C004146206800F0C6FAA36822689B1B32440E
:10561C000020A3602260DBE72A4600F07BFB0646F5
:10562C000028E1D15046216900F0CEFAC7E700000E
:10563C002DE9F04F98468B8907461B060D461446FC
:10564C009DB00ED50B6963B9402100F009FB2860B1
:10565C00286120B90C233B604FF0FF30D1E0402390
:10566C006B610023099320238DF8293030234FF0F0
:10567C000109CDF80C80DFF8A4818DF82A3023467F
:10568C009A4613F8012B0AB1252AF9D1BAEB040B6F
:10569C000BD05B46224629463846FFF76DFF01309A
:1056AC0000F0AA80099A5A4409929AF80030002B0B
:1056BC0000F0A28000234FF0FF32CDE905230AF160
:1056CC00010A049307938DF853301A93544605221C
:1056DC0014F8011B514800F041FA049AD8B9D006CD
:1056EC0044BF20238DF85330110744BF2B238DF872
:1056FC0053309AF800302A2B15D0544600204FF026
:10570C000A0C079A214611F8013B303B092B4ED964
:10571C00B0B1079214E0A0EB080309FA03F31343AA
:10572C00A2460493D2E7039B191D1B680391002B1F
:10573C00BBBF5B4242F0020207930793B8BF0492CF
:10574C0023782E2B0CD163782A2B35D1039B023472
:10575C001A1D1B680392002BB8BF4FF0FF33059343
:10576C00DFF8C8A003225046217800F0F7F940B1C9
:10577C004023A0EB0A0003FA00F0049B013403431E
:10578C00049314F8011B062225488DF8281000F00C
:10579C00E5F9002838D0234B1BBB039B073323F0C0
:1057AC00070308330393099B3344099367E70C46BB
:1057BC0001200CFB0232A5E700234FF00A0C19461E
:1057CC0001340593204610F8012B303A092A03D9ED
:1057DC00002BC5D00591C3E7044601230CFB012126
:1057EC00F0E703AB00932A4638460F4B04A9AFF3FE
:1057FC000080421C0646D6D1AB895B063FF52CAF28
:10580C0009981DB0BDE8F08F03AB00932A463846CB
:10581C00054B04A900F07CF8EBE700BFF65E00082E
:10582C00005F00080000000085550008FC5E0008C1
:10583C002DE9F047164699468A680B69074693424C
:10584C00B8BF1346336091F843200C46DDF8208036
:10585C000AB1013333602368990642BF33680233BF
:10586C003360256815F0060506D104F1190AE368C2
:10587C0032689B1AAB4228DC94F84320131E226832
:10588C0018BF012392062DD44946384604F1430231
:10589C00C047013020D02368E56803F00603042BD1
:1058AC0018BF002532684FF00006A36808BFAD1A78
:1058BC00226908BF25EAE5759342C4BF9B1AED180F
:1058CC001A34B5421AD1002008E001235246494649
:1058DC003846C047013003D14FF0FF30BDE8F087A8
:1058EC000135C4E73020E11881F843005A1C94F8C4
:1058FC0045102244023382F84310C5E701232246A7
:10590C0049463846C0470130E6D00136D9E7000099
:10591C002DE9FF470C46277E9146782F80469A4604
:10592C000C9904F1430207D8622F0AD8002F00F01B
:10593C00D980582F00F0A48004F1420684F84270FC
:10594C003AE0A7F16303152BF6D801A050F823F029
:10595C00B5590008C95900084559000845590008AF
:10596C004559000845590008C9590008455900080F
:10597C00455900084559000845590008D75A0008F0
:10598C00F9590008B95A000845590008455900084A
:10599C00F95A000845590008F959000845590008FA
:1059AC0045590008C15A00080B6804F142061A1D3B
:1059BC001B680A6084F842300123A4E0256808685B
:1059CC002E0600F104030AD505680B60002D03DADE
:1059DC002D236D4284F843300A235E4819E015F0FC
:1059EC00400F05680B6018BF2DB2EFE70B682568F8
:1059FC00181D0860280601D51D6802E06906FBD554
:105A0C001D886F2F0CBF08230A235248002184F8ED
:105A1C0043106668002EA8BF2168A660A4BF21F0C1
:105A2C00040121600DB9002E4DD01646B5FBF3F1E3
:105A3C0003FB1157C75D06F8017D2F46BB420D468F
:105A4C00F4D9082B0BD12368DF0708D523696168CB
:105A5C009942DEBF302306F8013C06F1FF36921B5B
:105A6C0022614B4621464046CDF800A003AAFFF721
:105A7C00DFFE01304CD14FF0FF3004B0BDE8F087B1
:105A8C00344884F845700E68236856F8045B1F068A
:105A9C000E6014D5D90744BF43F0200323601DB911
:105AAC00236823F0200323601023AFE7236843F01F
:105ABC00200323607823284884F84530E3E75E060A
:105ACC0048BFADB2E6E71646BBE70B6826681D1D5E
